:100000000C942A000C943C000C943C000C943C0092
:100010000C943C000C943C000C943C000C943C0070
:100020000C943C000C943C000C948D000C943C000F
:100030000C943C000C943C000C943C000C943C0050
:100040000C943C000C943C000C943C000C943C0040
:100050000C943C0011241FBECFE5D8E0DEBFCDBF1D
:1000600020E0A0E6B0E001C01D92A538B207E1F79C
:100070000E944D000C94B6000C9400009BB381E0EC
:1000800089278BBB08959BB382E089278BBB08959A
:100090009BB384E089278BBB089587E08ABB20E06F
:1000A00030E04EE350E068EE73E080E00E946B00C9
:1000B00021E030E043E450E060ED77E081E00E9431
:1000C0006B0022E030E048E450E068EB7BE082E047
:1000D0000E946B00FFCFA82FB0E097E0899FF0014E
:1000E0001124E05AFF4F82819381892BA1F4FD01F5
:1000F000EE0FFF1FEE0FFF1FEE0FFF1FEA1BFB0BA4
:10010000E05AFF4F718360835383428381E084838D
:1001100036832583089582E008951F920F920FB6CB
:100120000F9211242F933F934F935F936F937F937D
:100130008F939F93AF93BF93EF93FF93E0918300CF
:10014000F0918400309709F00995FF91EF91BF91EC
:10015000AF919F918F917F916F915F914F913F915F
:100160002F910F900FBE0F901F901895F894FFCF0E
:00000001FF
